{
  "_format": "hh-sol-artifact-1",
  "contractName": "NFTDutchAuction_ERC20Bids",
  "sourceName": "contracts/NFTDutchAuction_ERC20Bids.sol",
  "abi": [
    {
      "inputs": [
        {
          "internalType": "uint256",
          "name": "_reservePrice",
          "type": "uint256"
        },
        {
          "internalType": "uint256",
          "name": "_numBlocksAuctionOpen",
          "type": "uint256"
        },
        {
          "internalType": "uint256",
          "name": "_offerPriceDecrement",
          "type": "uint256"
        },
        {
          "internalType": "uint256",
          "name": "_nftTokenId",
          "type": "uint256"
        },
        {
          "internalType": "address",
          "name": "_erc721TokenAddress",
          "type": "address"
        },
        {
          "internalType": "address",
          "name": "_erc20TokenAddress",
          "type": "address"
        }
      ],
      "stateMutability": "nonpayable",
      "type": "constructor"
    },
    {
      "inputs": [],
      "name": "auctionEnded",
      "outputs": [
        {
          "internalType": "bool",
          "name": "",
          "type": "bool"
        }
      ],
      "stateMutability": "view",
      "type": "function"
    },
    {
      "inputs": [],
      "name": "bidTransfered",
      "outputs": [
        {
          "internalType": "uint256",
          "name": "",
          "type": "uint256"
        }
      ],
      "stateMutability": "view",
      "type": "function"
    },
    {
      "inputs": [],
      "name": "currentPrice",
      "outputs": [
        {
          "internalType": "uint256",
          "name": "",
          "type": "uint256"
        }
      ],
      "stateMutability": "view",
      "type": "function"
    },
    {
      "inputs": [],
      "name": "eRCToken",
      "outputs": [
        {
          "internalType": "contract ERC20Token",
          "name": "",
          "type": "address"
        }
      ],
      "stateMutability": "view",
      "type": "function"
    },
    {
      "inputs": [],
      "name": "endBlock",
      "outputs": [
        {
          "internalType": "uint256",
          "name": "",
          "type": "uint256"
        }
      ],
      "stateMutability": "view",
      "type": "function"
    },
    {
      "inputs": [],
      "name": "erc20TokenAddress",
      "outputs": [
        {
          "internalType": "address",
          "name": "",
          "type": "address"
        }
      ],
      "stateMutability": "view",
      "type": "function"
    },
    {
      "inputs": [],
      "name": "erc721TokenAddress",
      "outputs": [
        {
          "internalType": "address",
          "name": "",
          "type": "address"
        }
      ],
      "stateMutability": "view",
      "type": "function"
    },
    {
      "inputs": [],
      "name": "getCurrentPrice",
      "outputs": [
        {
          "internalType": "uint256",
          "name": "",
          "type": "uint256"
        }
      ],
      "stateMutability": "nonpayable",
      "type": "function"
    },
    {
      "inputs": [],
      "name": "nftContractToken",
      "outputs": [
        {
          "internalType": "contract NFTDutchAuctionToken",
          "name": "",
          "type": "address"
        }
      ],
      "stateMutability": "view",
      "type": "function"
    },
    {
      "inputs": [],
      "name": "nftTokenId",
      "outputs": [
        {
          "internalType": "uint256",
          "name": "",
          "type": "uint256"
        }
      ],
      "stateMutability": "view",
      "type": "function"
    },
    {
      "inputs": [],
      "name": "numBlocksAuctionOpen",
      "outputs": [
        {
          "internalType": "uint256",
          "name": "",
          "type": "uint256"
        }
      ],
      "stateMutability": "view",
      "type": "function"
    },
    {
      "inputs": [],
      "name": "offerPriceDecrement",
      "outputs": [
        {
          "internalType": "uint256",
          "name": "",
          "type": "uint256"
        }
      ],
      "stateMutability": "view",
      "type": "function"
    },
    {
      "inputs": [],
      "name": "ownerOfToken",
      "outputs": [
        {
          "internalType": "address",
          "name": "",
          "type": "address"
        }
      ],
      "stateMutability": "view",
      "type": "function"
    },
    {
      "inputs": [
        {
          "internalType": "uint256",
          "name": "_bidAmount",
          "type": "uint256"
        }
      ],
      "name": "placeBid",
      "outputs": [],
      "stateMutability": "payable",
      "type": "function"
    },
    {
      "inputs": [],
      "name": "reservePrice",
      "outputs": [
        {
          "internalType": "uint256",
          "name": "",
          "type": "uint256"
        }
      ],
      "stateMutability": "view",
      "type": "function"
    },
    {
      "inputs": [],
      "name": "seller",
      "outputs": [
        {
          "internalType": "address payable",
          "name": "",
          "type": "address"
        }
      ],
      "stateMutability": "view",
      "type": "function"
    },
    {
      "inputs": [],
      "name": "startBlock",
      "outputs": [
        {
          "internalType": "uint256",
          "name": "",
          "type": "uint256"
        }
      ],
      "stateMutability": "view",
      "type": "function"
    }
  ],
  "bytecode": "0x60806040523480156200001157600080fd5b506040516200154638038062001546833981810160405281019062000037919062000538565b6200005367dcc8ce28c2cb71d760c01b6200049060201b60201c565b6200006f678308185a832b851060c01b6200049060201b60201c565b33600260006101000a81548173ffffffffffffffffffffffffffffffffffffffff021916908373ffffffffffffffffffffffffffffffffffffffff160217905550620000cc679d42aee8abc0641660c01b6200049060201b60201c565b85600681905550620000ef67b5aca95be15b5e3460c01b6200049060201b60201c565b84600781905550620001126718758b5de1f9be2760c01b6200049060201b60201c565b836008819055506200013567f4af6dc2c30ae67360c01b6200049060201b60201c565b82600c81905550620001586791498e475c7a0dd360c01b6200049060201b60201c565b81600560006101000a81548173ffffffffffffffffffffffffffffffffffffffff021916908373ffffffffffffffffffffffffffffffffffffffff160217905550620001b567c4201048aee2e31d60c01b6200049060201b60201c565b80600460006101000a81548173ffffffffffffffffffffffffffffffffffffffff021916908373ffffffffffffffffffffffffffffffffffffffff16021790555062000212674440526ef61dd6ad60c01b6200049060201b60201c565b436009819055506200023567447c36e238d01bf560c01b6200049060201b60201c565b60075460095462000247919062000603565b600a81905550620002696788e18adbf8bceac460c01b6200049060201b60201c565b8173ffffffffffffffffffffffffffffffffffffffff16636352211e846040518263ffffffff1660e01b8152600401620002a491906200064f565b602060405180830381865afa158015620002c2573d6000803e3d6000fd5b505050506040513d601f19601f82011682018060405250810190620002e891906200066c565b600360006101000a81548173ffffffffffffffffffffffffffffffffffffffff021916908373ffffffffffffffffffffffffffffffffffffffff16021790555062000344679e9182d47e5afe7560c01b6200049060201b60201c565b6000600d60006101000a81548160ff0219169083151502179055506200037b67b2074662d9452da860c01b6200049060201b60201c565b6200039767188278a010a18b5260c01b6200049060201b60201c565b620003b3670a7e873f77cf971c60c01b6200049060201b60201c565b600360009054906101000a900473ffffffffffffffffffffffffffffffffffffffff1673ffffffffffffffffffffffffffffffffffffffff16600260009054906101000a900473ffffffffffffffffffffffffffffffffffffffff1673ffffffffffffffffffffffffffffffffffffffff161462000468576040517f08c379a00000000000000000000000000000000000000000000000000000000081526004016200045f90620006ff565b60405180910390fd5b6200048467c51ccdc1ff6b220660c01b6200049060201b60201c565b50505050505062000721565b50565b600080fd5b6000819050919050565b620004ad8162000498565b8114620004b957600080fd5b50565b600081519050620004cd81620004a2565b92915050565b600073ffffffffffffffffffffffffffffffffffffffff82169050919050565b60006200050082620004d3565b9050919050565b6200051281620004f3565b81146200051e57600080fd5b50565b600081519050620005328162000507565b92915050565b60008060008060008060c0878903121562000558576200055762000493565b5b60006200056889828a01620004bc565b96505060206200057b89828a01620004bc565b95505060406200058e89828a01620004bc565b9450506060620005a189828a01620004bc565b9350506080620005b489828a0162000521565b92505060a0620005c789828a0162000521565b9150509295509295509295565b7f4e487b7100000000000000000000000000000000000000000000000000000000600052601160045260246000fd5b6000620006108262000498565b91506200061d8362000498565b9250828201905080821115620006385762000637620005d4565b5b92915050565b620006498162000498565b82525050565b60006020820190506200066660008301846200063e565b92915050565b60006020828403121562000685576200068462000493565b5b6000620006958482850162000521565b91505092915050565b600082825260208201905092915050565b7f53656e646572206973206e6f7420746865206f776e6572206f6620746f6b656e600082015250565b6000620006e76020836200069e565b9150620006f482620006af565b602082019050919050565b600060208201905081810360008301526200071a81620006d8565b9050919050565b610e1580620007316000396000f3fe6080604052600436106100fe5760003560e01c80639979ef4511610095578063db2e1eed11610064578063db2e1eed146102f8578063df241cb914610323578063eb91d37e1461034e578063f835cd3c14610379578063f975a83f146103a4576100fe565b80639979ef451461025b5780639d1b464a14610277578063c7859643146102a2578063d3642a88146102cd576100fe565b80636954be37116100d15780636954be37146101af5780637e830574146101da57806385b8a24e146102055780638643337414610230576100fe565b8063083c63231461010357806308551a531461012e5780633103ea621461015957806348cd4cb114610184575b600080fd5b34801561010f57600080fd5b506101186103cf565b60405161012591906109c4565b60405180910390f35b34801561013a57600080fd5b506101436103d5565b6040516101509190610a20565b60405180910390f35b34801561016557600080fd5b5061016e6103fb565b60405161017b91906109c4565b60405180910390f35b34801561019057600080fd5b50610199610401565b6040516101a691906109c4565b60405180910390f35b3480156101bb57600080fd5b506101c4610407565b6040516101d19190610a9a565b60405180910390f35b3480156101e657600080fd5b506101ef61042b565b6040516101fc91906109c4565b60405180910390f35b34801561021157600080fd5b5061021a610431565b60405161022791906109c4565b60405180910390f35b34801561023c57600080fd5b50610245610437565b6040516102529190610ad0565b60405180910390f35b61027560048036038101906102709190610b1c565b61044a565b005b34801561028357600080fd5b5061028c610876565b60405161029991906109c4565b60405180910390f35b3480156102ae57600080fd5b506102b761087c565b6040516102c49190610b6a565b60405180910390f35b3480156102d957600080fd5b506102e26108a2565b6040516102ef91906109c4565b60405180910390f35b34801561030457600080fd5b5061030d6108a8565b60405161031a91906109c4565b60405180910390f35b34801561032f57600080fd5b506103386108ae565b6040516103459190610b6a565b60405180910390f35b34801561035a57600080fd5b506103636108d4565b60405161037091906109c4565b60405180910390f35b34801561038557600080fd5b5061038e61095c565b60405161039b9190610b6a565b60405180910390f35b3480156103b057600080fd5b506103b9610982565b6040516103c69190610ba6565b60405180910390f35b600a5481565b600260009054906101000a900473ffffffffffffffffffffffffffffffffffffffff1681565b60075481565b60095481565b60008054906101000a900473ffffffffffffffffffffffffffffffffffffffff1681565b600c5481565b600e5481565b600d60009054906101000a900460ff1681565b61045e67412950269dc4d80860c01b6109a8565b610472678c05bb58e41c916460c01b6109a8565b61048667c81f8dc81204378060c01b6109a8565b61048e6108d4565b506104a3675dce6a872e5f348b60c01b6109a8565b600460009054906101000a900473ffffffffffffffffffffffffffffffffffffffff1673ffffffffffffffffffffffffffffffffffffffff166370a08231306040518263ffffffff1660e01b81526004016104fe9190610b6a565b602060405180830381865afa15801561051b573d6000803e3d6000fd5b505050506040513d601f19601f8201168201806040525081019061053f9190610bd6565b600e819055506105596706d465c108a1f52260c01b6109a8565b61056d675393b001c792461260c01b6109a8565b600b5481101580156105805750600e5481145b1561079557610599671f10eb1c3f15319260c01b6109a8565b6105ad673143ab5d0831dfbc60c01b6109a8565b6001600d60006101000a81548160ff0219169083151502179055506105dc67fb5bb0963dfb58e560c01b6109a8565b6105f067c9384584312c00da60c01b6109a8565b600560009054906101000a900473ffffffffffffffffffffffffffffffffffffffff1673ffffffffffffffffffffffffffffffffffffffff166342842e0e600260009054906101000a900473ffffffffffffffffffffffffffffffffffffffff1633600c546040518463ffffffff1660e01b815260040161067393929190610c24565b600060405180830381600087803b15801561068d57600080fd5b505af11580156106a1573d6000803e3d6000fd5b505050506106b96755f54f433b85ae7a60c01b6109a8565b6106cd67e9ce0b0af96ca78360c01b6109a8565b600460009054906101000a900473ffffffffffffffffffffffffffffffffffffffff1673ffffffffffffffffffffffffffffffffffffffff1663a9059cbb600260009054906101000a900473ffffffffffffffffffffffffffffffffffffffff16836040518363ffffffff1660e01b815260040161074c929190610c5b565b6020604051808303816000875af115801561076b573d6000803e3d6000fd5b505050506040513d601f19601f8201168201806040525081019061078f9190610cb0565b50610873565b6107a9670155ffbfc54b120a60c01b6109a8565b6107bd6799d226972cc551a060c01b6109a8565b6107d167a92d306e1c81a24c60c01b6109a8565b600460009054906101000a900473ffffffffffffffffffffffffffffffffffffffff1673ffffffffffffffffffffffffffffffffffffffff1663a9059cbb33836040518363ffffffff1660e01b815260040161082e929190610cdd565b6020604051808303816000875af115801561084d573d6000803e3d6000fd5b505050506040513d601f19601f820116820180604052508101906108719190610cb0565b505b50565b600b5481565b600360009054906101000a900473ffffffffffffffffffffffffffffffffffffffff1681565b60085481565b60065481565b600560009054906101000a900473ffffffffffffffffffffffffffffffffffffffff1681565b60006108ea67d02bc682dd4e474c60c01b6109a8565b6108fe67c3b9e49c84b3133960c01b6109a8565b60085443600a5461090f9190610d35565b6109199190610d69565b6006546109269190610dab565b600b8190555061094067a8d1a01174b570bf60c01b6109a8565b61095467e5f59d3c8de36e3060c01b6109a8565b600b54905090565b600460009054906101000a900473ffffffffffffffffffffffffffffffffffffffff1681565b600160009054906101000a900473ffffffffffffffffffffffffffffffffffffffff1681565b50565b6000819050919050565b6109be816109ab565b82525050565b60006020820190506109d960008301846109b5565b92915050565b600073ffffffffffffffffffffffffffffffffffffffff82169050919050565b6000610a0a826109df565b9050919050565b610a1a816109ff565b82525050565b6000602082019050610a356000830184610a11565b92915050565b6000819050919050565b6000610a60610a5b610a56846109df565b610a3b565b6109df565b9050919050565b6000610a7282610a45565b9050919050565b6000610a8482610a67565b9050919050565b610a9481610a79565b82525050565b6000602082019050610aaf6000830184610a8b565b92915050565b60008115159050919050565b610aca81610ab5565b82525050565b6000602082019050610ae56000830184610ac1565b92915050565b600080fd5b610af9816109ab565b8114610b0457600080fd5b50565b600081359050610b1681610af0565b92915050565b600060208284031215610b3257610b31610aeb565b5b6000610b4084828501610b07565b91505092915050565b6000610b54826109df565b9050919050565b610b6481610b49565b82525050565b6000602082019050610b7f6000830184610b5b565b92915050565b6000610b9082610a67565b9050919050565b610ba081610b85565b82525050565b6000602082019050610bbb6000830184610b97565b92915050565b600081519050610bd081610af0565b92915050565b600060208284031215610bec57610beb610aeb565b5b6000610bfa84828501610bc1565b91505092915050565b6000610c0e82610a67565b9050919050565b610c1e81610c03565b82525050565b6000606082019050610c396000830186610c15565b610c466020830185610b5b565b610c5360408301846109b5565b949350505050565b6000604082019050610c706000830185610c15565b610c7d60208301846109b5565b9392505050565b610c8d81610ab5565b8114610c9857600080fd5b50565b600081519050610caa81610c84565b92915050565b600060208284031215610cc657610cc5610aeb565b5b6000610cd484828501610c9b565b91505092915050565b6000604082019050610cf26000830185610b5b565b610cff60208301846109b5565b9392505050565b7f4e487b7100000000000000000000000000000000000000000000000000000000600052601160045260246000fd5b6000610d40826109ab565b9150610d4b836109ab565b9250828203905081811115610d6357610d62610d06565b5b92915050565b6000610d74826109ab565b9150610d7f836109ab565b9250828202610d8d816109ab565b91508282048414831517610da457610da3610d06565b5b5092915050565b6000610db6826109ab565b9150610dc1836109ab565b9250828201905080821115610dd957610dd8610d06565b5b9291505056fea26469706673582212204b2dd72a120908fad2e5f2fec8ec39ad38848a47618ec42e43aa0ff727a0174864736f6c63430008120033",
  "linkReferences": {},
  "deployedLinkReferences": {}
}