{
  "_format": "hh-sol-artifact-1",
  "contractName": "NFTDutchAuctionToken",
  "sourceName": "contracts/NFTdutchauctiontoken.sol",
  "abi": [
    {
      "inputs": [],
      "stateMutability": "nonpayable",
      "type": "constructor"
    },
    {
      "anonymous": false,
      "inputs": [
        {
          "indexed": true,
          "internalType": "address",
          "name": "owner",
          "type": "address"
        },
        {
          "indexed": true,
          "internalType": "address",
          "name": "approved",
          "type": "address"
        },
        {
          "indexed": true,
          "internalType": "uint256",
          "name": "tokenId",
          "type": "uint256"
        }
      ],
      "name": "Approval",
      "type": "event"
    },
    {
      "anonymous": false,
      "inputs": [
        {
          "indexed": true,
          "internalType": "address",
          "name": "owner",
          "type": "address"
        },
        {
          "indexed": true,
          "internalType": "address",
          "name": "operator",
          "type": "address"
        },
        {
          "indexed": false,
          "internalType": "bool",
          "name": "approved",
          "type": "bool"
        }
      ],
      "name": "ApprovalForAll",
      "type": "event"
    },
    {
      "anonymous": false,
      "inputs": [
        {
          "indexed": true,
          "internalType": "address",
          "name": "previousOwner",
          "type": "address"
        },
        {
          "indexed": true,
          "internalType": "address",
          "name": "newOwner",
          "type": "address"
        }
      ],
      "name": "OwnershipTransferred",
      "type": "event"
    },
    {
      "anonymous": false,
      "inputs": [
        {
          "indexed": true,
          "internalType": "address",
          "name": "from",
          "type": "address"
        },
        {
          "indexed": true,
          "internalType": "address",
          "name": "to",
          "type": "address"
        },
        {
          "indexed": true,
          "internalType": "uint256",
          "name": "tokenId",
          "type": "uint256"
        }
      ],
      "name": "Transfer",
      "type": "event"
    },
    {
      "inputs": [
        {
          "internalType": "address",
          "name": "to",
          "type": "address"
        },
        {
          "internalType": "uint256",
          "name": "tokenId",
          "type": "uint256"
        }
      ],
      "name": "approve",
      "outputs": [],
      "stateMutability": "nonpayable",
      "type": "function"
    },
    {
      "inputs": [
        {
          "internalType": "address",
          "name": "owner",
          "type": "address"
        }
      ],
      "name": "balanceOf",
      "outputs": [
        {
          "internalType": "uint256",
          "name": "",
          "type": "uint256"
        }
      ],
      "stateMutability": "view",
      "type": "function"
    },
    {
      "inputs": [
        {
          "internalType": "uint256",
          "name": "tokenId",
          "type": "uint256"
        }
      ],
      "name": "getApproved",
      "outputs": [
        {
          "internalType": "address",
          "name": "",
          "type": "address"
        }
      ],
      "stateMutability": "view",
      "type": "function"
    },
    {
      "inputs": [
        {
          "internalType": "address",
          "name": "owner",
          "type": "address"
        },
        {
          "internalType": "address",
          "name": "operator",
          "type": "address"
        }
      ],
      "name": "isApprovedForAll",
      "outputs": [
        {
          "internalType": "bool",
          "name": "",
          "type": "bool"
        }
      ],
      "stateMutability": "view",
      "type": "function"
    },
    {
      "inputs": [],
      "name": "name",
      "outputs": [
        {
          "internalType": "string",
          "name": "",
          "type": "string"
        }
      ],
      "stateMutability": "view",
      "type": "function"
    },
    {
      "inputs": [],
      "name": "owner",
      "outputs": [
        {
          "internalType": "address",
          "name": "",
          "type": "address"
        }
      ],
      "stateMutability": "view",
      "type": "function"
    },
    {
      "inputs": [
        {
          "internalType": "uint256",
          "name": "tokenId",
          "type": "uint256"
        }
      ],
      "name": "ownerOf",
      "outputs": [
        {
          "internalType": "address",
          "name": "",
          "type": "address"
        }
      ],
      "stateMutability": "view",
      "type": "function"
    },
    {
      "inputs": [],
      "name": "renounceOwnership",
      "outputs": [],
      "stateMutability": "nonpayable",
      "type": "function"
    },
    {
      "inputs": [
        {
          "internalType": "address",
          "name": "to",
          "type": "address"
        },
        {
          "internalType": "uint256",
          "name": "tokenId",
          "type": "uint256"
        }
      ],
      "name": "safeMint",
      "outputs": [],
      "stateMutability": "nonpayable",
      "type": "function"
    },
    {
      "inputs": [
        {
          "internalType": "address",
          "name": "from",
          "type": "address"
        },
        {
          "internalType": "address",
          "name": "to",
          "type": "address"
        },
        {
          "internalType": "uint256",
          "name": "tokenId",
          "type": "uint256"
        }
      ],
      "name": "safeTransferFrom",
      "outputs": [],
      "stateMutability": "nonpayable",
      "type": "function"
    },
    {
      "inputs": [
        {
          "internalType": "address",
          "name": "from",
          "type": "address"
        },
        {
          "internalType": "address",
          "name": "to",
          "type": "address"
        },
        {
          "internalType": "uint256",
          "name": "tokenId",
          "type": "uint256"
        },
        {
          "internalType": "bytes",
          "name": "data",
          "type": "bytes"
        }
      ],
      "name": "safeTransferFrom",
      "outputs": [],
      "stateMutability": "nonpayable",
      "type": "function"
    },
    {
      "inputs": [
        {
          "internalType": "address",
          "name": "operator",
          "type": "address"
        },
        {
          "internalType": "bool",
          "name": "approved",
          "type": "bool"
        }
      ],
      "name": "setApprovalForAll",
      "outputs": [],
      "stateMutability": "nonpayable",
      "type": "function"
    },
    {
      "inputs": [
        {
          "internalType": "bytes4",
          "name": "interfaceId",
          "type": "bytes4"
        }
      ],
      "name": "supportsInterface",
      "outputs": [
        {
          "internalType": "bool",
          "name": "",
          "type": "bool"
        }
      ],
      "stateMutability": "view",
      "type": "function"
    },
    {
      "inputs": [],
      "name": "symbol",
      "outputs": [
        {
          "internalType": "string",
          "name": "",
          "type": "string"
        }
      ],
      "stateMutability": "view",
      "type": "function"
    },
    {
      "inputs": [
        {
          "internalType": "uint256",
          "name": "tokenId",
          "type": "uint256"
        }
      ],
      "name": "tokenURI",
      "outputs": [
        {
          "internalType": "string",
          "name": "",
          "type": "string"
        }
      ],
      "stateMutability": "view",
      "type": "function"
    },
    {
      "inputs": [
        {
          "internalType": "address",
          "name": "from",
          "type": "address"
        },
        {
          "internalType": "address",
          "name": "to",
          "type": "address"
        },
        {
          "internalType": "uint256",
          "name": "tokenId",
          "type": "uint256"
        }
      ],
      "name": "transferFrom",
      "outputs": [],
      "stateMutability": "nonpayable",
      "type": "function"
    },
    {
      "inputs": [
        {
          "internalType": "address",
          "name": "newOwner",
          "type": "address"
        }
      ],
      "name": "transferOwnership",
      "outputs": [],
      "stateMutability": "nonpayable",
      "type": "function"
    }
  ],
  "bytecode": "0x60806040523480156200001157600080fd5b506040518060400160405280601481526020017f4e4654447574636841756374696f6e546f6b656e0000000000000000000000008152506040518060400160405280600381526020017f445554000000000000000000000000000000000000000000000000000000000081525081600090816200008f919062000431565b508060019081620000a1919062000431565b505050620000c4620000b8620000e660201b60201c565b620000ee60201b60201c565b620000e0672c90950019c93faf60c01b620001b460201b60201c565b62000518565b600033905090565b6000600660009054906101000a900473ffffffffffffffffffffffffffffffffffffffff16905081600660006101000a81548173ffffffffffffffffffffffffffffffffffffffff021916908373ffffffffffffffffffffffffffffffffffffffff1602179055508173ffffffffffffffffffffffffffffffffffffffff168173ffffffffffffffffffffffffffffffffffffffff167f8be0079c531659141344cd1fd0a4f28419497f9722a3daafe3b4186f6b6457e060405160405180910390a35050565b50565b600081519050919050565b7f4e487b7100000000000000000000000000000000000000000000000000000000600052604160045260246000fd5b7f4e487b7100000000000000000000000000000000000000000000000000000000600052602260045260246000fd5b600060028204905060018216806200023957607f821691505b6020821081036200024f576200024e620001f1565b5b50919050565b60008190508160005260206000209050919050565b60006020601f8301049050919050565b600082821b905092915050565b600060088302620002b97fffffffffffffffffffffffffffffffffffffffffffffffffffffffffffffffff826200027a565b620002c586836200027a565b95508019841693508086168417925050509392505050565b6000819050919050565b6000819050919050565b6000620003126200030c6200030684620002dd565b620002e7565b620002dd565b9050919050565b6000819050919050565b6200032e83620002f1565b620003466200033d8262000319565b84845462000287565b825550505050565b600090565b6200035d6200034e565b6200036a81848462000323565b505050565b5b8181101562000392576200038660008262000353565b60018101905062000370565b5050565b601f821115620003e157620003ab8162000255565b620003b6846200026a565b81016020851015620003c6578190505b620003de620003d5856200026a565b8301826200036f565b50505b505050565b600082821c905092915050565b60006200040660001984600802620003e6565b1980831691505092915050565b6000620004218383620003f3565b9150826002028217905092915050565b6200043c82620001b7565b67ffffffffffffffff811115620004585762000457620001c2565b5b62000464825462000220565b6200047182828562000396565b600060209050601f831160018114620004a9576000841562000494578287015190505b620004a0858262000413565b86555062000510565b601f198416620004b98662000255565b60005b82811015620004e357848901518255600182019150602085019450602081019050620004bc565b86831015620005035784890151620004ff601f891682620003f3565b8355505b6001600288020188555050505b505050505050565b6128aa80620005286000396000f3fe608060405234801561001057600080fd5b506004361061010b5760003560e01c8063715018a6116100a2578063a22cb46511610071578063a22cb465146102a4578063b88d4fde146102c0578063c87b56dd146102dc578063e985e9c51461030c578063f2fde38b1461033c5761010b565b8063715018a6146102425780638da5cb5b1461024c57806395d89b411461026a578063a1448194146102885761010b565b806323b872dd116100de57806323b872dd146101aa57806342842e0e146101c65780636352211e146101e257806370a08231146102125761010b565b806301ffc9a71461011057806306fdde0314610140578063081812fc1461015e578063095ea7b31461018e575b600080fd5b61012a60048036038101906101259190611aa8565b610358565b6040516101379190611af0565b60405180910390f35b61014861043a565b6040516101559190611b9b565b60405180910390f35b61017860048036038101906101739190611bf3565b6104cc565b6040516101859190611c61565b60405180910390f35b6101a860048036038101906101a39190611ca8565b610512565b005b6101c460048036038101906101bf9190611ce8565b610629565b005b6101e060048036038101906101db9190611ce8565b610689565b005b6101fc60048036038101906101f79190611bf3565b6106a9565b6040516102099190611c61565b60405180910390f35b61022c60048036038101906102279190611d3b565b61072f565b6040516102399190611d77565b60405180910390f35b61024a6107e6565b005b6102546107fa565b6040516102619190611c61565b60405180910390f35b610272610824565b60405161027f9190611b9b565b60405180910390f35b6102a2600480360381019061029d9190611ca8565b6108b6565b005b6102be60048036038101906102b99190611dbe565b610930565b005b6102da60048036038101906102d59190611f33565b610946565b005b6102f660048036038101906102f19190611bf3565b6109a8565b6040516103039190611b9b565b60405180910390f35b61032660048036038101906103219190611fb6565b610a10565b6040516103339190611af0565b60405180910390f35b61035660048036038101906103519190611d3b565b610aa4565b005b60007f80ac58cd000000000000000000000000000000000000000000000000000000007bffffffffffffffffffffffffffffffffffffffffffffffffffffffff1916827bffffffffffffffffffffffffffffffffffffffffffffffffffffffff1916148061042357507f5b5e139f000000000000000000000000000000000000000000000000000000007bffffffffffffffffffffffffffffffffffffffffffffffffffffffff1916827bffffffffffffffffffffffffffffffffffffffffffffffffffffffff1916145b80610433575061043282610b27565b5b9050919050565b60606000805461044990612025565b80601f016020809104026020016040519081016040528092919081815260200182805461047590612025565b80156104c25780601f10610497576101008083540402835291602001916104c2565b820191906000526020600020905b8154815290600101906020018083116104a557829003601f168201915b5050505050905090565b60006104d782610b91565b6004600083815260200190815260200160002060009054906101000a900473ffffffffffffffffffffffffffffffffffffffff169050919050565b600061051d826106a9565b90508073ffffffffffffffffffffffffffffffffffffffff168373ffffffffffffffffffffffffffffffffffffffff160361058d576040517f08c379a0000000000000000000000000000000000000000000000000000000008152600401610584906120c8565b60405180910390fd5b8073ffffffffffffffffffffffffffffffffffffffff166105ac610bdc565b73ffffffffffffffffffffffffffffffffffffffff1614806105db57506105da816105d5610bdc565b610a10565b5b61061a576040517f08c379a00000000000000000000000000000000000000000000000000000000081526004016106119061215a565b60405180910390fd5b6106248383610be4565b505050565b61063a610634610bdc565b82610c9d565b610679576040517f08c379a0000000000000000000000000000000000000000000000000000000008152600401610670906121ec565b60405180910390fd5b610684838383610d32565b505050565b6106a483838360405180602001604052806000815250610946565b505050565b6000806106b58361102b565b9050600073ffffffffffffffffffffffffffffffffffffffff168173ffffffffffffffffffffffffffffffffffffffff1603610726576040517f08c379a000000000000000000000000000000000000000000000000000000000815260040161071d90612258565b60405180910390fd5b80915050919050565b60008073ffffffffffffffffffffffffffffffffffffffff168273ffffffffffffffffffffffffffffffffffffffff160361079f576040517f08c379a0000000000000000000000000000000000000000000000000000000008152600401610796906122ea565b60405180910390fd5b600360008373ffffffffffffffffffffffffffffffffffffffff1673ffffffffffffffffffffffffffffffffffffffff168152602001908152602001600020549050919050565b6107ee611068565b6107f860006110e6565b565b6000600660009054906101000a900473ffffffffffffffffffffffffffffffffffffffff16905090565b60606001805461083390612025565b80601f016020809104026020016040519081016040528092919081815260200182805461085f90612025565b80156108ac5780601f10610881576101008083540402835291602001916108ac565b820191906000526020600020905b81548152906001019060200180831161088f57829003601f168201915b5050505050905090565b6108ca6757bdb0c58354a8a460c01b6111ac565b6108d2611068565b6108e667bf3d8866397612cd60c01b6111ac565b6108fa6733d21d281f1caf4260c01b6111ac565b61090e67bbebff0bd7c7b46160c01b6111ac565b61092267f0e852b41932aad560c01b6111ac565b61092c82826111af565b5050565b61094261093b610bdc565b83836111cd565b5050565b610957610951610bdc565b83610c9d565b610996576040517f08c379a000000000000000000000000000000000000000000000000000000000815260040161098d906121ec565b60405180910390fd5b6109a284848484611339565b50505050565b60606109b382610b91565b60006109bd611395565b905060008151116109dd5760405180602001604052806000815250610a08565b806109e7846113ac565b6040516020016109f8929190612346565b6040516020818303038152906040525b915050919050565b6000600560008473ffffffffffffffffffffffffffffffffffffffff1673ffffffffffffffffffffffffffffffffffffffff16815260200190815260200160002060008373ffffffffffffffffffffffffffffffffffffffff1673ffffffffffffffffffffffffffffffffffffffff16815260200190815260200160002060009054906101000a900460ff16905092915050565b610aac611068565b600073ffffffffffffffffffffffffffffffffffffffff168173ffffffffffffffffffffffffffffffffffffffff1603610b1b576040517f08c379a0000000000000000000000000000000000000000000000000000000008152600401610b12906123dc565b60405180910390fd5b610b24816110e6565b50565b60007f01ffc9a7000000000000000000000000000000000000000000000000000000007bffffffffffffffffffffffffffffffffffffffffffffffffffffffff1916827bffffffffffffffffffffffffffffffffffffffffffffffffffffffff1916149050919050565b610b9a8161147a565b610bd9576040517f08c379a0000000000000000000000000000000000000000000000000000000008152600401610bd090612258565b60405180910390fd5b50565b600033905090565b816004600083815260200190815260200160002060006101000a81548173ffffffffffffffffffffffffffffffffffffffff021916908373ffffffffffffffffffffffffffffffffffffffff160217905550808273ffffffffffffffffffffffffffffffffffffffff16610c57836106a9565b73ffffffffffffffffffffffffffffffffffffffff167f8c5be1e5ebec7d5bd14f71427d1e84f3dd0314c0f7b2291e5b200ac8c7c3b92560405160405180910390a45050565b600080610ca9836106a9565b90508073ffffffffffffffffffffffffffffffffffffffff168473ffffffffffffffffffffffffffffffffffffffff161480610ceb5750610cea8185610a10565b5b80610d2957508373ffffffffffffffffffffffffffffffffffffffff16610d11846104cc565b73ffffffffffffffffffffffffffffffffffffffff16145b91505092915050565b8273ffffffffffffffffffffffffffffffffffffffff16610d52826106a9565b73ffffffffffffffffffffffffffffffffffffffff1614610da8576040517f08c379a0000000000000000000000000000000000000000000000000000000008152600401610d9f9061246e565b60405180910390fd5b600073ffffffffffffffffffffffffffffffffffffffff168273ffffffffffffffffffffffffffffffffffffffff1603610e17576040517f08c379a0000000000000000000000000000000000000000000000000000000008152600401610e0e90612500565b60405180910390fd5b610e2483838360016114bb565b8273ffffffffffffffffffffffffffffffffffffffff16610e44826106a9565b73ffffffffffffffffffffffffffffffffffffffff1614610e9a576040517f08c379a0000000000000000000000000000000000000000000000000000000008152600401610e919061246e565b60405180910390fd5b6004600082815260200190815260200160002060006101000a81549073ffffffffffffffffffffffffffffffffffffffff02191690556001600360008573ffffffffffffffffffffffffffffffffffffffff1673ffffffffffffffffffffffffffffffffffffffff168152602001908152602001600020600082825403925050819055506001600360008473ffffffffffffffffffffffffffffffffffffffff1673ffffffffffffffffffffffffffffffffffffffff16815260200190815260200160002060008282540192505081905550816002600083815260200190815260200160002060006101000a81548173ffffffffffffffffffffffffffffffffffffffff021916908373ffffffffffffffffffffffffffffffffffffffff160217905550808273ffffffffffffffffffffffffffffffffffffffff168473ffffffffffffffffffffffffffffffffffffffff167fddf252ad1be2c89b69c2b068fc378daa952ba7f163c4a11628f55a4df523b3ef60405160405180910390a461102683838360016114c1565b505050565b60006002600083815260200190815260200160002060009054906101000a900473ffffffffffffffffffffffffffffffffffffffff169050919050565b611070610bdc565b73ffffffffffffffffffffffffffffffffffffffff1661108e6107fa565b73ffffffffffffffffffffffffffffffffffffffff16146110e4576040517f08c379a00000000000000000000000000000000000000000000000000000000081526004016110db9061256c565b60405180910390fd5b565b6000600660009054906101000a900473ffffffffffffffffffffffffffffffffffffffff16905081600660006101000a81548173ffffffffffffffffffffffffffffffffffffffff021916908373ffffffffffffffffffffffffffffffffffffffff1602179055508173ffffffffffffffffffffffffffffffffffffffff168173ffffffffffffffffffffffffffffffffffffffff167f8be0079c531659141344cd1fd0a4f28419497f9722a3daafe3b4186f6b6457e060405160405180910390a35050565b50565b6111c98282604051806020016040528060008152506114c7565b5050565b8173ffffffffffffffffffffffffffffffffffffffff168373ffffffffffffffffffffffffffffffffffffffff160361123b576040517f08c379a0000000000000000000000000000000000000000000000000000000008152600401611232906125d8565b60405180910390fd5b80600560008573ffffffffffffffffffffffffffffffffffffffff1673ffffffffffffffffffffffffffffffffffffffff16815260200190815260200160002060008473ffffffffffffffffffffffffffffffffffffffff1673ffffffffffffffffffffffffffffffffffffffff16815260200190815260200160002060006101000a81548160ff0219169083151502179055508173ffffffffffffffffffffffffffffffffffffffff168373ffffffffffffffffffffffffffffffffffffffff167f17307eab39ab6107e8899845ad3d59bd9653f200f220920489ca2b5937696c318360405161132c9190611af0565b60405180910390a3505050565b611344848484610d32565b61135084848484611522565b61138f576040517f08c379a00000000000000000000000000000000000000000000000000000000081526004016113869061266a565b60405180910390fd5b50505050565b606060405180602001604052806000815250905090565b6060600060016113bb846116a9565b01905060008167ffffffffffffffff8111156113da576113d9611e08565b5b6040519080825280601f01601f19166020018201604052801561140c5781602001600182028036833780820191505090505b509050600082602001820190505b60011561146f578080600190039150507f3031323334353637383961626364656600000000000000000000000000000000600a86061a8153600a85816114635761146261268a565b5b0494506000850361141a575b819350505050919050565b60008073ffffffffffffffffffffffffffffffffffffffff1661149c8361102b565b73ffffffffffffffffffffffffffffffffffffffff1614159050919050565b50505050565b50505050565b6114d183836117fc565b6114de6000848484611522565b61151d576040517f08c379a00000000000000000000000000000000000000000000000000000000081526004016115149061266a565b60405180910390fd5b505050565b60006115438473ffffffffffffffffffffffffffffffffffffffff16611a19565b1561169c578373ffffffffffffffffffffffffffffffffffffffff1663150b7a0261156c610bdc565b8786866040518563ffffffff1660e01b815260040161158e949392919061270e565b6020604051808303816000875af19250505080156115ca57506040513d601f19601f820116820180604052508101906115c7919061276f565b60015b61164c573d80600081146115fa576040519150601f19603f3d011682016040523d82523d6000602084013e6115ff565b606091505b506000815103611644576040517f08c379a000000000000000000000000000000000000000000000000000000000815260040161163b9061266a565b60405180910390fd5b805181602001fd5b63150b7a0260e01b7bffffffffffffffffffffffffffffffffffffffffffffffffffffffff1916817bffffffffffffffffffffffffffffffffffffffffffffffffffffffff1916149150506116a1565b600190505b949350505050565b600080600090507a184f03e93ff9f4daa797ed6e38ed64bf6a1f0100000000000000008310611707577a184f03e93ff9f4daa797ed6e38ed64bf6a1f01000000000000000083816116fd576116fc61268a565b5b0492506040810190505b6d04ee2d6d415b85acef81000000008310611744576d04ee2d6d415b85acef8100000000838161173a5761173961268a565b5b0492506020810190505b662386f26fc10000831061177357662386f26fc1000083816117695761176861268a565b5b0492506010810190505b6305f5e100831061179c576305f5e10083816117925761179161268a565b5b0492506008810190505b61271083106117c15761271083816117b7576117b661268a565b5b0492506004810190505b606483106117e457606483816117da576117d961268a565b5b0492506002810190505b600a83106117f3576001810190505b80915050919050565b600073ffffffffffffffffffffffffffffffffffffffff168273ffffffffffffffffffffffffffffffffffffffff160361186b576040517f08c379a0000000000000000000000000000000000000000000000000000000008152600401611862906127e8565b60405180910390fd5b6118748161147a565b156118b4576040517f08c379a00000000000000000000000000000000000000000000000000000000081526004016118ab90612854565b60405180910390fd5b6118c26000838360016114bb565b6118cb8161147a565b1561190b576040517f08c379a000000000000000000000000000000000000000000000000000000000815260040161190290612854565b60405180910390fd5b6001600360008473ffffffffffffffffffffffffffffffffffffffff1673ffffffffffffffffffffffffffffffffffffffff16815260200190815260200160002060008282540192505081905550816002600083815260200190815260200160002060006101000a81548173ffffffffffffffffffffffffffffffffffffffff021916908373ffffffffffffffffffffffffffffffffffffffff160217905550808273ffffffffffffffffffffffffffffffffffffffff16600073ffffffffffffffffffffffffffffffffffffffff167fddf252ad1be2c89b69c2b068fc378daa952ba7f163c4a11628f55a4df523b3ef60405160405180910390a4611a156000838360016114c1565b5050565b6000808273ffffffffffffffffffffffffffffffffffffffff163b119050919050565b6000604051905090565b600080fd5b600080fd5b60007fffffffff0000000000000000000000000000000000000000000000000000000082169050919050565b611a8581611a50565b8114611a9057600080fd5b50565b600081359050611aa281611a7c565b92915050565b600060208284031215611abe57611abd611a46565b5b6000611acc84828501611a93565b91505092915050565b60008115159050919050565b611aea81611ad5565b82525050565b6000602082019050611b056000830184611ae1565b92915050565b600081519050919050565b600082825260208201905092915050565b60005b83811015611b45578082015181840152602081019050611b2a565b60008484015250505050565b6000601f19601f8301169050919050565b6000611b6d82611b0b565b611b778185611b16565b9350611b87818560208601611b27565b611b9081611b51565b840191505092915050565b60006020820190508181036000830152611bb58184611b62565b905092915050565b6000819050919050565b611bd081611bbd565b8114611bdb57600080fd5b50565b600081359050611bed81611bc7565b92915050565b600060208284031215611c0957611c08611a46565b5b6000611c1784828501611bde565b91505092915050565b600073ffffffffffffffffffffffffffffffffffffffff82169050919050565b6000611c4b82611c20565b9050919050565b611c5b81611c40565b82525050565b6000602082019050611c766000830184611c52565b92915050565b611c8581611c40565b8114611c9057600080fd5b50565b600081359050611ca281611c7c565b92915050565b60008060408385031215611cbf57611cbe611a46565b5b6000611ccd85828601611c93565b9250506020611cde85828601611bde565b9150509250929050565b600080600060608486031215611d0157611d00611a46565b5b6000611d0f86828701611c93565b9350506020611d2086828701611c93565b9250506040611d3186828701611bde565b9150509250925092565b600060208284031215611d5157611d50611a46565b5b6000611d5f84828501611c93565b91505092915050565b611d7181611bbd565b82525050565b6000602082019050611d8c6000830184611d68565b92915050565b611d9b81611ad5565b8114611da657600080fd5b50565b600081359050611db881611d92565b92915050565b60008060408385031215611dd557611dd4611a46565b5b6000611de385828601611c93565b9250506020611df485828601611da9565b9150509250929050565b600080fd5b600080fd5b7f4e487b7100000000000000000000000000000000000000000000000000000000600052604160045260246000fd5b611e4082611b51565b810181811067ffffffffffffffff82111715611e5f57611e5e611e08565b5b80604052505050565b6000611e72611a3c565b9050611e7e8282611e37565b919050565b600067ffffffffffffffff821115611e9e57611e9d611e08565b5b611ea782611b51565b9050602081019050919050565b82818337600083830152505050565b6000611ed6611ed184611e83565b611e68565b905082815260208101848484011115611ef257611ef1611e03565b5b611efd848285611eb4565b509392505050565b600082601f830112611f1a57611f19611dfe565b5b8135611f2a848260208601611ec3565b91505092915050565b60008060008060808587031215611f4d57611f4c611a46565b5b6000611f5b87828801611c93565b9450506020611f6c87828801611c93565b9350506040611f7d87828801611bde565b925050606085013567ffffffffffffffff811115611f9e57611f9d611a4b565b5b611faa87828801611f05565b91505092959194509250565b60008060408385031215611fcd57611fcc611a46565b5b6000611fdb85828601611c93565b9250506020611fec85828601611c93565b9150509250929050565b7f4e487b7100000000000000000000000000000000000000000000000000000000600052602260045260246000fd5b6000600282049050600182168061203d57607f821691505b6020821081036120505761204f611ff6565b5b50919050565b7f4552433732313a20617070726f76616c20746f2063757272656e74206f776e6560008201527f7200000000000000000000000000000000000000000000000000000000000000602082015250565b60006120b2602183611b16565b91506120bd82612056565b604082019050919050565b600060208201905081810360008301526120e1816120a5565b9050919050565b7f4552433732313a20617070726f76652063616c6c6572206973206e6f7420746f60008201527f6b656e206f776e6572206f7220617070726f76656420666f7220616c6c000000602082015250565b6000612144603d83611b16565b915061214f826120e8565b604082019050919050565b6000602082019050818103600083015261217381612137565b9050919050565b7f4552433732313a2063616c6c6572206973206e6f7420746f6b656e206f776e6560008201527f72206f7220617070726f76656400000000000000000000000000000000000000602082015250565b60006121d6602d83611b16565b91506121e18261217a565b604082019050919050565b60006020820190508181036000830152612205816121c9565b9050919050565b7f4552433732313a20696e76616c696420746f6b656e2049440000000000000000600082015250565b6000612242601883611b16565b915061224d8261220c565b602082019050919050565b6000602082019050818103600083015261227181612235565b9050919050565b7f4552433732313a2061646472657373207a65726f206973206e6f74206120766160008201527f6c6964206f776e65720000000000000000000000000000000000000000000000602082015250565b60006122d4602983611b16565b91506122df82612278565b604082019050919050565b60006020820190508181036000830152612303816122c7565b9050919050565b600081905092915050565b600061232082611b0b565b61232a818561230a565b935061233a818560208601611b27565b80840191505092915050565b60006123528285612315565b915061235e8284612315565b91508190509392505050565b7f4f776e61626c653a206e6577206f776e657220697320746865207a65726f206160008201527f6464726573730000000000000000000000000000000000000000000000000000602082015250565b60006123c6602683611b16565b91506123d18261236a565b604082019050919050565b600060208201905081810360008301526123f5816123b9565b9050919050565b7f4552433732313a207472616e736665722066726f6d20696e636f72726563742060008201527f6f776e6572000000000000000000000000000000000000000000000000000000602082015250565b6000612458602583611b16565b9150612463826123fc565b604082019050919050565b600060208201905081810360008301526124878161244b565b9050919050565b7f4552433732313a207472616e7366657220746f20746865207a65726f2061646460008201527f7265737300000000000000000000000000000000000000000000000000000000602082015250565b60006124ea602483611b16565b91506124f58261248e565b604082019050919050565b60006020820190508181036000830152612519816124dd565b9050919050565b7f4f776e61626c653a2063616c6c6572206973206e6f7420746865206f776e6572600082015250565b6000612556602083611b16565b915061256182612520565b602082019050919050565b6000602082019050818103600083015261258581612549565b9050919050565b7f4552433732313a20617070726f766520746f2063616c6c657200000000000000600082015250565b60006125c2601983611b16565b91506125cd8261258c565b602082019050919050565b600060208201905081810360008301526125f1816125b5565b9050919050565b7f4552433732313a207472616e7366657220746f206e6f6e20455243373231526560008201527f63656976657220696d706c656d656e7465720000000000000000000000000000602082015250565b6000612654603283611b16565b915061265f826125f8565b604082019050919050565b6000602082019050818103600083015261268381612647565b9050919050565b7f4e487b7100000000000000000000000000000000000000000000000000000000600052601260045260246000fd5b600081519050919050565b600082825260208201905092915050565b60006126e0826126b9565b6126ea81856126c4565b93506126fa818560208601611b27565b61270381611b51565b840191505092915050565b60006080820190506127236000830187611c52565b6127306020830186611c52565b61273d6040830185611d68565b818103606083015261274f81846126d5565b905095945050505050565b60008151905061276981611a7c565b92915050565b60006020828403121561278557612784611a46565b5b60006127938482850161275a565b91505092915050565b7f4552433732313a206d696e7420746f20746865207a65726f2061646472657373600082015250565b60006127d2602083611b16565b91506127dd8261279c565b602082019050919050565b60006020820190508181036000830152612801816127c5565b9050919050565b7f4552433732313a20746f6b656e20616c7265616479206d696e74656400000000600082015250565b600061283e601c83611b16565b915061284982612808565b602082019050919050565b6000602082019050818103600083015261286d81612831565b905091905056fea264697066735822122009fee58f0484c9a2836867cfbf71bf21de4778eb6ed65b33291dafc55babfaf364736f6c63430008120033",
  "linkReferences": {},
  "deployedLinkReferences": {}
}